{
  "_format": "hh-sol-artifact-1",
  "contractName": "blackjack",
  "sourceName": "contracts/blackjack.sol",
  "abi": [
    {
      "constant": false,
      "inputs": [
        {
          "name": "gameId",
          "type": "uint256"
        },
        {
          "name": "deck",
          "type": "uint8[]"
        },
        {
          "name": "seed",
          "type": "bytes32"
        },
        {
          "name": "numCards",
          "type": "uint8"
        },
        {
          "name": "v",
          "type": "uint8"
        },
        {
          "name": "r",
          "type": "bytes32"
        },
        {
          "name": "s",
          "type": "bytes32"
        }
      ],
      "name": "stand",
      "outputs": [],
      "payable": false,
      "stateMutability": "nonpayable",
      "type": "function"
    },
    {
      "constant": false,
      "inputs": [
        {
          "name": "id",
          "type": "uint256"
        },
        {
          "name": "deck",
          "type": "bytes32"
        },
        {
          "name": "srvSeed",
          "type": "bytes32"
        },
        {
          "name": "cSeed",
          "type": "bytes32"
        }
      ],
      "name": "initGame",
      "outputs": [],
      "payable": true,
      "stateMutability": "payable",
      "type": "function"
    },
    {
      "constant": false,
      "inputs": [
        {
          "name": "newMax",
          "type": "uint256"
        }
      ],
      "name": "setMaximumBet",
      "outputs": [],
      "payable": false,
      "stateMutability": "nonpayable",
      "type": "function"
    },
    {
      "constant": true,
      "inputs": [],
      "name": "maximumBet",
      "outputs": [
        {
          "name": "",
          "type": "uint256"
        }
      ],
      "payable": false,
      "stateMutability": "view",
      "type": "function"
    },
    {
      "constant": true,
      "inputs": [],
      "name": "signer",
      "outputs": [
        {
          "name": "",
          "type": "address"
        }
      ],
      "payable": false,
      "stateMutability": "view",
      "type": "function"
    },
    {
      "constant": false,
      "inputs": [
        {
          "name": "byteArray",
          "type": "uint8[]"
        }
      ],
      "name": "convertToBytes",
      "outputs": [
        {
          "name": "b",
          "type": "bytes"
        }
      ],
      "payable": false,
      "stateMutability": "nonpayable",
      "type": "function"
    },
    {
      "constant": false,
      "inputs": [
        {
          "name": "amount",
          "type": "uint256"
        }
      ],
      "name": "withdraw",
      "outputs": [],
      "payable": false,
      "stateMutability": "nonpayable",
      "type": "function"
    },
    {
      "constant": false,
      "inputs": [
        {
          "name": "oldGameId",
          "type": "uint256"
        },
        {
          "name": "oldDeck",
          "type": "uint8[]"
        },
        {
          "name": "oldSeed",
          "type": "bytes32"
        },
        {
          "name": "numCards",
          "type": "uint8"
        },
        {
          "name": "v",
          "type": "uint8"
        },
        {
          "name": "r",
          "type": "bytes32"
        },
        {
          "name": "s",
          "type": "bytes32"
        },
        {
          "name": "newGameId",
          "type": "uint256"
        },
        {
          "name": "newDeck",
          "type": "bytes32"
        },
        {
          "name": "newSrvSeed",
          "type": "bytes32"
        },
        {
          "name": "newCSeed",
          "type": "bytes32"
        }
      ],
      "name": "standAndRebet",
      "outputs": [],
      "payable": false,
      "stateMutability": "nonpayable",
      "type": "function"
    },
    {
      "constant": false,
      "inputs": [],
      "name": "close",
      "outputs": [],
      "payable": false,
      "stateMutability": "nonpayable",
      "type": "function"
    },
    {
      "constant": false,
      "inputs": [
        {
          "name": "signerAddress",
          "type": "address"
        }
      ],
      "name": "setSigner",
      "outputs": [],
      "payable": false,
      "stateMutability": "nonpayable",
      "type": "function"
    },
    {
      "constant": false,
      "inputs": [
        {
          "name": "x",
          "type": "uint256"
        }
      ],
      "name": "toBytes",
      "outputs": [
        {
          "name": "b",
          "type": "bytes"
        }
      ],
      "payable": false,
      "stateMutability": "nonpayable",
      "type": "function"
    },
    {
      "constant": false,
      "inputs": [
        {
          "name": "newMin",
          "type": "uint256"
        }
      ],
      "name": "setMinimumBet",
      "outputs": [],
      "payable": false,
      "stateMutability": "nonpayable",
      "type": "function"
    },
    {
      "constant": true,
      "inputs": [],
      "name": "owner",
      "outputs": [
        {
          "name": "",
          "type": "address"
        }
      ],
      "payable": false,
      "stateMutability": "view",
      "type": "function"
    },
    {
      "constant": false,
      "inputs": [
        {
          "name": "gameId",
          "type": "uint256"
        },
        {
          "name": "cards",
          "type": "uint8[]"
        },
        {
          "name": "numCards",
          "type": "uint8"
        }
      ],
      "name": "determineOutcome",
      "outputs": [
        {
          "name": "win",
          "type": "uint256"
        }
      ],
      "payable": true,
      "stateMutability": "payable",
      "type": "function"
    },
    {
      "constant": false,
      "inputs": [
        {
          "name": "newOwner",
          "type": "address"
        }
      ],
      "name": "changeOwner",
      "outputs": [],
      "payable": false,
      "stateMutability": "nonpayable",
      "type": "function"
    },
    {
      "constant": true,
      "inputs": [],
      "name": "minimumBet",
      "outputs": [
        {
          "name": "",
          "type": "uint256"
        }
      ],
      "payable": false,
      "stateMutability": "view",
      "type": "function"
    },
    {
      "constant": true,
      "inputs": [
        {
          "name": "gameId",
          "type": "uint256"
        },
        {
          "name": "numCards",
          "type": "uint8"
        },
        {
          "name": "v",
          "type": "uint8"
        },
        {
          "name": "r",
          "type": "bytes32"
        },
        {
          "name": "s",
          "type": "bytes32"
        }
      ],
      "name": "checkNumCards",
      "outputs": [
        {
          "name": "correct",
          "type": "bool"
        }
      ],
      "payable": false,
      "stateMutability": "view",
      "type": "function"
    },
    {
      "constant": false,
      "inputs": [
        {
          "name": "gameId",
          "type": "uint256"
        },
        {
          "name": "deck",
          "type": "uint8[]"
        },
        {
          "name": "seed",
          "type": "bytes32"
        }
      ],
      "name": "checkDeck",
      "outputs": [
        {
          "name": "correct",
          "type": "bool"
        }
      ],
      "payable": true,
      "stateMutability": "payable",
      "type": "function"
    },
    {
      "inputs": [
        {
          "name": "minBet",
          "type": "uint256"
        },
        {
          "name": "maxBet",
          "type": "uint256"
        },
        {
          "name": "signerAddress",
          "type": "address"
        }
      ],
      "payable": true,
      "stateMutability": "payable",
      "type": "constructor"
    },
    {
      "payable": true,
      "stateMutability": "payable",
      "type": "fallback"
    },
    {
      "anonymous": false,
      "inputs": [
        {
          "indexed": true,
          "name": "id",
          "type": "uint256"
        },
        {
          "indexed": false,
          "name": "deck",
          "type": "bytes32"
        },
        {
          "indexed": false,
          "name": "srvSeed",
          "type": "bytes32"
        },
        {
          "indexed": false,
          "name": "cSeed",
          "type": "bytes32"
        },
        {
          "indexed": false,
          "name": "player",
          "type": "address"
        },
        {
          "indexed": false,
          "name": "bet",
          "type": "uint256"
        }
      ],
      "name": "NewGame",
      "type": "event"
    },
    {
      "anonymous": false,
      "inputs": [
        {
          "indexed": true,
          "name": "id",
          "type": "uint256"
        },
        {
          "indexed": false,
          "name": "player",
          "type": "address"
        },
        {
          "indexed": false,
          "name": "win",
          "type": "uint256"
        }
      ],
      "name": "Result",
      "type": "event"
    },
    {
      "anonymous": false,
      "inputs": [
        {
          "indexed": false,
          "name": "errorCode",
          "type": "uint256"
        }
      ],
      "name": "Error",
      "type": "event"
    }
  ],
  "bytecode": "0x60806040526101a060405190810160405280600b60ff168152602001600260ff168152602001600360ff168152602001600460ff168152602001600560ff168152602001600660ff168152602001600760ff168152602001600860ff168152602001600960ff168152602001600a60ff168152602001600a60ff168152602001600a60ff168152602001600a60ff16815250600190600d620000a392919062000182565b5060405160608062001e8283398101806040526060811015620000c557600080fd5b81019080805190602001909291908051906020019092919080519060200190929190505050336000806101000a81548173ffffffffffffffffffffffffffffffffffffffff021916908373ffffffffffffffffffffffffffffffffffffffff160217905550826003819055508160048190555080600560006101000a81548173ffffffffffffffffffffffffffffffffffffffff021916908373ffffffffffffffffffffffffffffffffffffffff16021790555050505062000256565b82600d601f01602090048101928215620002105791602002820160005b83821115620001df57835183826101000a81548160ff021916908360ff16021790555092602001926001016020816000010492830192600103026200019f565b80156200020e5782816101000a81549060ff0219169055600101602081600001049283019260010302620001df565b505b5090506200021f919062000223565b5090565b6200025391905b808211156200024f57600081816101000a81549060ff0219169055506001016200022a565b5090565b90565b611c1c80620002666000396000f3fe6080604052600436106100f6576000357c0100000000000000000000000000000000000000000000000000000000900480630140e3591461015357806311d87c4e1461025a57806320ae2059146102a6578063227cade5146102e1578063238ac9331461030c5780632dab7ee2146103635780632e1a7d4d146104a1578063306ae57b146104dc57806343d726d61461060c5780636c19e78314610623578063775a8f5e146106745780638772ae3c146107285780638da5cb5b146107635780639ddae7f5146107ba578063a6f9dae11461089d578063c38a8afd146108ee578063cc87ed8214610919578063ec9c677d1461099a575b6000809054906101000a900473ffffffffffffffffffffffffffffffffffffffff1673ffffffffffffffffffffffffffffffffffffffff163373ffffffffffffffffffffffffffffffffffffffff1614151561015157600080fd5b005b34801561015f57600080fd5b50610258600480360360e081101561017657600080fd5b81019080803590602001909291908035906020019064010000000081111561019d57600080fd5b8201836020820111156101af57600080fd5b803590602001918460208302840111640100000000831117156101d157600080fd5b919080806020026020016040519081016040528093929190818152602001838360200280828437600081840152601f19601f82011690508083019250505050505050919291929080359060200190929190803560ff169060200190929190803560ff1690602001909291908035906020019092919080359060200190929190505050610a7e565b005b6102a46004803603608081101561027057600080fd5b8101908080359060200190929190803590602001909291908035906020019092919080359060200190929190505050610a9d565b005b3480156102b257600080fd5b506102df600480360360208110156102c957600080fd5b8101908080359060200190929190505050610af8565b005b3480156102ed57600080fd5b506102f6610b5d565b6040518082815260200191505060405180910390f35b34801561031857600080fd5b50610321610b63565b604051808273ffffffffffffffffffffffffffffffffffffffff1673ffffffffffffffffffffffffffffffffffffffff16815260200191505060405180910390f35b34801561036f57600080fd5b506104266004803603602081101561038657600080fd5b81019080803590602001906401000000008111156103a357600080fd5b8201836020820111156103b557600080fd5b803590602001918460208302840111640100000000831117156103d757600080fd5b919080806020026020016040519081016040528093929190818152602001838360200280828437600081840152601f19601f820116905080830192505050505050509192919290505050610b89565b6040518080602001828103825283818151815260200191508051906020019080838360005b8381101561046657808201518184015260208101905061044b565b50505050905090810190601f1680156104935780820380516001836020036101000a031916815260200191505b509250505060405180910390f35b3480156104ad57600080fd5b506104da600480360360208110156104c457600080fd5b8101908080359060200190929190505050610c65565b005b3480156104e857600080fd5b5061060a600480360361016081101561050057600080fd5b81019080803590602001909291908035906020019064010000000081111561052757600080fd5b82018360208201111561053957600080fd5b8035906020019184602083028401116401000000008311171561055b57600080fd5b919080806020026020016040519081016040528093929190818152602001838360200280828437600081840152601f19601f82011690508083019250505050505050919291929080359060200190929190803560ff169060200190929190803560ff169060200190929190803590602001909291908035906020019092919080359060200190929190803590602001909291908035906020019092919080359060200190929190505050610d51565b005b34801561061857600080fd5b50610621610df8565b005b34801561062f57600080fd5b506106726004803603602081101561064657600080fd5b81019080803573ffffffffffffffffffffffffffffffffffffffff169060200190929190505050610e6c565b005b34801561068057600080fd5b506106ad6004803603602081101561069757600080fd5b8101908080359060200190929190505050610f0b565b6040518080602001828103825283818151815260200191508051906020019080838360005b838110156106ed5780820151818401526020810190506106d2565b50505050905090810190601f16801561071a5780820380516001836020036101000a031916815260200191505b509250505060405180910390f35b34801561073457600080fd5b506107616004803603602081101561074b57600080fd5b8101908080359060200190929190505050610f4f565b005b34801561076f57600080fd5b50610778610fb4565b604051808273ffffffffffffffffffffffffffffffffffffffff1673ffffffffffffffffffffffffffffffffffffffff16815260200191505060405180910390f35b610887600480360360608110156107d057600080fd5b8101908080359060200190929190803590602001906401000000008111156107f757600080fd5b82018360208201111561080957600080fd5b8035906020019184602083028401116401000000008311171561082b57600080fd5b919080806020026020016040519081016040528093929190818152602001838360200280828437600081840152601f19601f820116905080830192505050505050509192919290803560ff169060200190929190505050610fd9565b6040518082815260200191505060405180910390f35b3480156108a957600080fd5b506108ec600480360360208110156108c057600080fd5b81019080803573ffffffffffffffffffffffffffffffffffffffff169060200190929190505050611182565b005b3480156108fa57600080fd5b50610903611220565b6040518082815260200191505060405180910390f35b34801561092557600080fd5b50610980600480360360a081101561093c57600080fd5b8101908080359060200190929190803560ff169060200190929190803560ff1690602001909291908035906020019092919080359060200190929190505050611226565b604051808215151515815260200191505060405180910390f35b610a64600480360360608110156109b057600080fd5b8101908080359060200190929190803590602001906401000000008111156109d757600080fd5b8201836020820111156109e957600080fd5b80359060200191846020830284011164010000000083111715610a0b57600080fd5b919080806020026020016040519081016040528093929190818152602001838360200280828437600081840152601f19601f82011690508083019250505050505050919291929080359060200190929190505050611323565b604051808215151515815260200191505060405180910390f35b6000610a91888888888888886001611442565b90505050505050505050565b6003543410158015610ab157506004543411155b1515610abc57600080fd5b3073ffffffffffffffffffffffffffffffffffffffff16316003340211151515610ae557600080fd5b610af28484848434611726565b50505050565b6000809054906101000a900473ffffffffffffffffffffffffffffffffffffffff1673ffffffffffffffffffffffffffffffffffffffff163373ffffffffffffffffffffffffffffffffffffffff16141515610b5357600080fd5b8060038190555050565b60045481565b600560009054906101000a900473ffffffffffffffffffffffffffffffffffffffff1681565b606081516040519080825280601f01601f191660200182016040528015610bbf5781602001600182028038833980820191505090505b50905060008090505b82518160ff161015610c5f57828160ff16815181101515610be557fe5b906020019060200201517f010000000000000000000000000000000000000000000000000000000000000002828260ff16815181101515610c2257fe5b9060200101907effffffffffffffffffffffffffffffffffffffffffffffffffffffffffffff1916908160001a9053508080600101915050610bc8565b50919050565b6000809054906101000a900473ffffffffffffffffffffffffffffffffffffffff1673ffffffffffffffffffffffffffffffffffffffff163373ffffffffffffffffffffffffffffffffffffffff16141515610cc057600080fd5b3073ffffffffffffffffffffffffffffffffffffffff163181101515610d4e576040517f08c379a000000000000000000000000000000000000000000000000000000000815260040180806020018281038252601d8152602001807f596f7520646f206e6f74206f776e20736f206d756368206d6f6e65792100000081525060200191505060405180910390fd5b50565b6000610d648c8c8c8c8c8c8c6000611442565b90506000600260008e81526020019081526020016000206004015490508082101515610d9d57610d978686868685611726565b80820391505b600082111580610dde57503373ffffffffffffffffffffffffffffffffffffffff166108fc839081150290604051600060405180830381858888f193505050505b1515610de957600080fd5b50505050505050505050505050565b6000809054906101000a900473ffffffffffffffffffffffffffffffffffffffff1673ffffffffffffffffffffffffffffffffffffffff163373ffffffffffffffffffffffffffffffffffffffff16141515610e5357600080fd5b3373ffffffffffffffffffffffffffffffffffffffff16ff5b6000809054906101000a900473ffffffffffffffffffffffffffffffffffffffff1673ffffffffffffffffffffffffffffffffffffffff163373ffffffffffffffffffffffffffffffffffffffff16141515610ec757600080fd5b80600560006101000a81548173ffffffffffffffffffffffffffffffffffffffff021916908373ffffffffffffffffffffffffffffffffffffffff16021790555050565b606060206040519080825280601f01601f191660200182016040528015610f415781602001600182028038833980820191505090505b509050816020820152919050565b6000809054906101000a900473ffffffffffffffffffffffffffffffffffffffff1673ffffffffffffffffffffffffffffffffffffffff163373ffffffffffffffffffffffffffffffffffffffff16141515610faa57600080fd5b8060038190555050565b6000809054906101000a900473ffffffffffffffffffffffffffffffffffffffff1681565b600080610fe684846118f4565b905060158160ff161115610ffe57600091505061117b565b60008061100b86866119e1565b9150915060158360ff16148015611025575060028560ff16145b801561102f575080155b156110c75761106e86600081518110151561104657fe5b9060200190602002015187600281518110151561105f57fe5b90602001906020020151611bbf565b15611097576003600260008981526020019081526020016000206004015402935050505061117b565b60026005600260008a815260200190815260200160002060040154028115156110bc57fe5b04935050505061117b565b60158360ff161480156110dd575060058560ff16145b156111055760028060008981526020019081526020016000206004015402935050505061117b565b8160ff168360ff16118061111c575060158260ff16115b156111445760028060008981526020019081526020016000206004015402935050505061117b565b8160ff168360ff161415611173576002600088815260200190815260200160002060040154935050505061117b565b600093505050505b9392505050565b6000809054906101000a900473ffffffffffffffffffffffffffffffffffffffff1673ffffffffffffffffffffffffffffffffffffffff163373ffffffffffffffffffffffffffffffffffffffff161415156111dd57600080fd5b806000806101000a81548173ffffffffffffffffffffffffffffffffffffffff021916908373ffffffffffffffffffffffffffffffffffffffff16021790555050565b60035481565b6000808686604051602001808381526020018260ff1660ff16815260200192505050604051602081830303815290604052805190602001209050600560009054906101000a900473ffffffffffffffffffffffffffffffffffffffff1673ffffffffffffffffffffffffffffffffffffffff1660018287878760405160008152602001604052604051808581526020018460ff1660ff1681526020018381526020018281526020019450505050506020604051602081039080840390855afa1580156112f6573d6000803e3d6000fd5b5050506020604051035173ffffffffffffffffffffffffffffffffffffffff161491505095945050505050565b60006002600085815260200190815260200160002060020154826040516020018082815260200191505060405160208183030381529060405280519060200120141515611373576000905061143b565b600260008581526020019081526020016000206001015461139384610b89565b836040516020018080602001838152602001828103825284818151815260200191508051906020019080838360005b838110156113dd5780820151818401526020810190506113c2565b50505050905090810190601f16801561140a5780820380516001836020036101000a031916815260200191505b50935050505060405160208183030381529060405280519060200120141515611436576000905061143b565b600190505b9392505050565b600080600260008b81526020019081526020016000209050600081600501549050600082600501819055508160030160009054906101000a900473ffffffffffffffffffffffffffffffffffffffff1673ffffffffffffffffffffffffffffffffffffffff163373ffffffffffffffffffffffffffffffffffffffff16141515611509577f2e36a7093f25f22bd4cbdeb6040174c3ba4c5fe8f1abc04e7c3c48f26c7413e060016040518082815260200191505060405180910390a160009250505061171a565b6115148b8b8b611323565b151561155d577f2e36a7093f25f22bd4cbdeb6040174c3ba4c5fe8f1abc04e7c3c48f26c7413e060026040518082815260200191505060405180910390a160009250505061171a565b61156a8b89898989611226565b15156115b3577f2e36a7093f25f22bd4cbdeb6040174c3ba4c5fe8f1abc04e7c3c48f26c7413e060036040518082815260200191505060405180910390a160009250505061171a565b42610e1082011015611602577f2e36a7093f25f22bd4cbdeb6040174c3ba4c5fe8f1abc04e7c3c48f26c7413e060046040518082815260200191505060405180910390a160009250505061171a565b61160d8b8b8a610fd9565b925083801561161c5750600083115b801561165a57503373ffffffffffffffffffffffffffffffffffffffff166108fc849081150290604051600060405180830381858888f19350505050155b156116ab577f2e36a7093f25f22bd4cbdeb6040174c3ba4c5fe8f1abc04e7c3c48f26c7413e060056040518082815260200191505060405180910390a180826005018190555060009250505061171a565b8a7f8179c2b3f821111bf4c1ddac0be4fccdfff2e27c0ccf99a67d130888bd0e55df3385604051808373ffffffffffffffffffffffffffffffffffffffff1673ffffffffffffffffffffffffffffffffffffffff1681526020018281526020019250505060405180910390a250505b98975050505050505050565b3373ffffffffffffffffffffffffffffffffffffffff166002600087815260200190815260200160002060030160009054906101000a900473ffffffffffffffffffffffffffffffffffffffff1673ffffffffffffffffffffffffffffffffffffffff1614151561179657600080fd5b60c0604051908101604052808681526020018581526020018481526020013373ffffffffffffffffffffffffffffffffffffffff168152602001828152602001428152506002600087815260200190815260200160002060008201518160000155602082015181600101556040820151816002015560608201518160030160006101000a81548173ffffffffffffffffffffffffffffffffffffffff021916908373ffffffffffffffffffffffffffffffffffffffff1602179055506080820151816004015560a08201518160050155905050847f1e9d2d28c1d972d03a7b3e86ea362077ec7c228f102930285148990e16226d4c8585853386604051808681526020018581526020018481526020018373ffffffffffffffffffffffffffffffffffffffff1673ffffffffffffffffffffffffffffffffffffffff1681526020018281526020019550505050505060405180910390a25050505050565b600080600080600090505b6002850160ff168160ff1610156119a85760018160ff1614158015611928575060038160ff1614155b1561199b57600d868260ff1681518110151561194057fe5b9060200190602002015160ff1681151561195657fe5b06915060018260ff16600d8110151561196b57fe5b602091828204019190069054906101000a900460ff168401935060008260ff16141561199a5782806001019350505b5b80806001019150506118ff565b505b60008260ff161180156119c0575060158360ff16115b156119d957600a830392508180600190039250506119aa565b505092915050565b6000806000600d8560018151811015156119f757fe5b9060200190602002015160ff16811515611a0d57fe5b0690506000600d866003815181101515611a2357fe5b9060200190602002015160ff16811515611a3957fe5b06905060018160ff16600d81101515611a4e57fe5b602091828204019190069054906101000a900460ff1660018360ff16600d81101515611a7657fe5b602091828204019190069054906101000a900460ff160193506000808360ff161415611aa55780806001019150505b60008260ff161415611aba5780806001019150505b60158560ff161115611ada57600a85039450808060019003915050611afa565b60158560ff161415611af9576015600181915094509450505050611bb8565b5b60005b60118660ff161015611bb357600d886002838a010160ff16815181101515611b2157fe5b9060200190602002015160ff16811515611b3757fe5b06935060018460ff16600d81101515611b4c57fe5b602091828204019190069054906101000a900460ff168601955060008460ff161415611b7b5781806001019250505b60158660ff16118015611b91575060008260ff16115b15611ba657600a860395508180600190039250505b8080600101915050611afd565b505050505b9250929050565b6000600d8260ff16811515611bd057fe5b0460ff16600d8460ff16811515611be357fe5b0460ff161490509291505056fea165627a7a72305820175ac5bc6de0088b14b290d2e152bd1d6c26a29f1f781907d801b5404134e9450029",
  "linkReferences": {},
  "deployedLinkReferences": {}
}